:020000040800F2
:10000000300800205D020008B9020008B9020008AB
:10001000B9020008B9020008B90200080000000097
:10002000000000000000000000000000B90200080D
:10003000B902000800000000B9020008E10300084E
:10004000B9020008B9020008B9020008B9020008A4
:10005000B9020008B9020008B9020008B902000894
:10006000B9020008B9020008B9020008B902000884
:10007000B9020008B9020008B9020008B902000874
:10008000B9020008B9020008B9020008B902000864
:10009000B9020008B9020008B9020008B902000854
:1000A000B9020008B9020008B9020008B902000844
:1000B000B9020008B9020008B9020008B902000834
:1000C000B9020008B9020008B9020008B902000824
:1000D000B9020008B9020008B9020008B902000814
:1000E000B9020008B9020008B9020008B902000804
:1000F000B9020008B9020008B9020008B9020008F4
:10010000B9020008B9020008B9020008B9020008E3
:10011000B9020008B9020008B90200083D0200084F
:10012000B9020008B9020008B9020008B9020008C3
:10013000B9020008B9020008B9020008B9020008B3
:10014000B9020008B9020008B9020008B9020008A3
:10015000B9020008B9020008B9020008B902000893
:10016000B9020008B9020008B9020008B902000883
:10017000B9020008B9020008B9020008B902000873
:10018000B9020008B902000880B400AF144B1B7814
:10019000002B21D0124B00221A70124B1B685A1CE4
:1001A000104B1A600F4B1B68FA2B15D90D4B002210
:1001B0001A600D4B5B6903F48053002B06D00A4B89
:1001C000094A526922F480525A6105E0064B064AF8
:1001D000526942F480525A61BD465DF8047B704713
:1001E0001400002018000020000C024080B584B0EC
:1001F00000AF2020012100F03DF941F26703BB80F0
:100200000123BB603B1D0C48194600F01FFB0A4848
:100210000121012200F0A4FB37233B700123FB7076
:100220003B46184600F0B4FA0348012100F078FB81
:100230001037BD4680BD00BF0014004080B500AF40
:10024000044B00221A82044B01221A70FFF79CFF14
:1002500080BD00BF001400401400002080B582B0B3
:1002600000AF104B7B60104B3B6007E03B681A1DF2
:100270003A607A68111D796012681A603A680B4B0F
:100280009A42F3D30A480B494FF000028842B8BFA4
:1002900040F8042BFFF6FAAF00F05EF80837BD46D1
:1002A00080BD00BFA8090008000000201400002045
:1002B000140000202C00002080B400AFFEE700BF37
:1002C00080B483B000AF03463960FB7197F9073003
:1002D000002B0BDA0D49FB7903F00F03043B3A685E
:1002E000D2B21201D2B20B441A7609E0084997F94A
:1002F00007303A68D2B21201D2B20B4483F800231D
:100300000C37BD465DF8047B704700BF00ED00E090
:1003100000E100E080B582B000AF78607B68B3F1A7
:10032000807F01D3012311E00A4B7A6822F07F42DB
:10033000013A5A604FF0FF300F21FFF7C1FF054B24
:1003400000229A60034B07221A60002318460837E0
:10035000BD4680BD10E000E080B500AF00F072F94E
:1003600000F0A6F8FFF742FF094B1A68094BA3FB00
:1003700002139B091846FFF7CDFF07484FF40051C1
:1003800000F04EF94FF47A7000F008F8F5E700BF7E
:1003900000000020D34D6210000C024080B485B0F4
:1003A00000AF78600023FB600023BB600023FB608C
:1003B0000DE00023BB6002E0BB680133BB60BA689C
:1003C00042F2C3039A42F7DDFB680133FB60FA682F
:1003D0007B689A42EDDB1437BD465DF8047B7047BD
:1003E00080B500AF024B01221A7000F003F880BD07
:1003F0001C00002080B500AF0C4B1B78002B14D0E4
:100400000A4B00221A700A4B1B685A1C084B1A60D0
:10041000074B1B68B3F57A7F07D9054B00221A609A
:1004200004484FF4804100F0FBF880BD1C00002020
:1004300020000020000C024080B483B000AF786040
:100440000B46FB70FB78002B06D0094B084A116B5A
:100450007A680A431A6306E0054B054A116B7A680D
:10046000D2430A401A630C37BD465DF8047B7047DF
:100470000038024080B483B000AF78600B46FB7058
:10048000FB78002B06D0094B084A116C7A680A43A6
:100490001A6406E0054B054A116C7A68D2430A409B
:1004A0001A640C37BD465DF8047B70470038024083
:1004B00080B500AF08200121FFF7BEFF0F4B4FF4BE
:1004C00070421A600D4B01221A710C4B00229A7176
:1004D0000A4B03225A71094B0022DA710848074976
:1004E00000F010F801200121FFF7A6FF034B0122C5
:1004F0001A60024B00221A7180BD00BF2400002048
:10050000000C024080B487B000AF786039600023EF
:100510007B6100233B610023FB6000237B6176E06D
:100520007B69012202FA03F33B613B681A683B696D
:100530001340FB60FA683B699A4265D17B681A6890
:100540007B695B00032101FA03F3DB431A407B68FC
:100550001A607B681A683B681B7919467B695B00E7
:1005600001FA03F31A437B681A603B681B79012B7D
:1005700003D03B681B79022B2ED17B689A687B697C
:100580005B00032101FA03F3DB431A407B689A60A6
:100590007B689A683B685B7919467B695B0001FA66
:1005A00003F31A437B689A607B685A687B699BB245
:1005B000012101FA03F3DB431A407B685A607B6830
:1005C0005A683B689B7919467B699BB201FA03F331
:1005D0009BB21A437B685A607B68DA687B699BB27E
:1005E0005B00032101FA03F3DB431A407B68DA6006
:1005F0007B68DA683B68DB7919467B695B0001FA46
:1006000003F31A437B68DA607B6901337B617B69A2
:100610000F2B85D91C37BD465DF8047B704700BFA2
:1006200080B483B000AF78600B467B807B685A69EA
:100630007B885A407B685A610C37BD465DF8047B65
:10064000704700BF80B500AF114B114A126842F0ED
:1006500001021A600E4B00229A600D4A0C4B1B6877
:1006600023F0847323F480331360094B094A5A60E2
:10067000074B074A126822F480221A60044B0022BA
:10068000DA6000F00BF8044B4FF000629A6080BD16
:10069000003802401030002400ED00E080B483B048
:1006A00000AF00237B6000233B60354B344A126867
:1006B00042F480321A60324B1B6803F400333B6013
:1006C0007B6801337B603B68002B03D17B68B3F50B
:1006D000A06FF0D12A4B1B6803F40033002B02D02B
:1006E00001233B6001E000233B603B68012B42D1CA
:1006F000234B234A126C42F080521A64214B214A48
:10070000126842F480421A601D4B1D4A92689A603A
:100710001B4B1B4A926842F400429A60184B184ADD
:10072000926842F4A0529A60154B174A5A60144BD3
:10073000134A126842F080721A6000BF104B1B68A7
:1007400003F00073002BF9D0104B40F205621A60E1
:100750000B4B0B4A926822F003029A60084B084A3E
:10076000926842F002029A6000BF054B9B6803F05A
:100770000C03082BF9D10C37BD465DF8047B70479C
:10078000003802400070004019544007003C02400D
:1007900080B485B000AF78600023FB730023BB7387
:1007A0000F237B737B68DB78002B37D0254BDB680E
:1007B000DB4303F4E0631B0AFB73FB7BC3F104031D
:1007C000BB737A7BFB7B42FA03F37B737B685B78BA
:1007D0001A46BB7B02FA03F3FB737B689A787B7B38
:1007E0001340DAB2FB7B1343FB73FB7B1B01FB73F0
:1007F000154A7B681B781344FA7B83F80023124B5D
:100800007A6812785209D2B27968097801F01F012A
:10081000012000FA01F143F822100EE00A4B7A6839
:1008200012785209D2B27968097801F01F010120CB
:1008300000FA01F1203243F822101437BD465DF86A
:10084000047B704700ED00E000E100E080B485B07B
:1008500000AF786039600023FB817B681B88FB81D7
:100860007A68284B9A4213D07A68274B9A420FD065
:100870007B68B3F1804F0BD07A68244B9A4207D043
:100880007A68234B9A4203D07A68224B9A4208D165
:10089000FB8923F07003FB813B685A88FB89134373
:1008A000FB817A681C4B9A420CD07A681B4B9A42A7
:1008B00008D0FB8923F44073FB813B681A89FB89CC
:1008C0001343FB817B68FA891A803B685A687B680E
:1008D000DA623B681A887B681A857A68094B9A4203
:1008E00003D07A68084B9A4204D13B689B7A1A4637
:1008F0007B681A867B6801229A821437BD465DF8B0
:10090000047B7047000001400004014000040040E7
:1009100000080040000C004000100040001400409F
:1009200080B483B000AF78600B46FB70FB78002B7F
:1009300008D07B681B889BB243F001039AB27B68A6
:100940001A8007E07B681B889BB223F001039AB2F0
:100950007B681A800C37BD465DF8047B704700BF8A
:1009600080B483B000AF786013460A467A807B700B
:100970007B78002B08D07B689B899AB27B881343D5
:100980009AB27B689A8109E07B689B899AB27B88DE
:10099000DB439BB213409AB27B689A810C37BD4609
:0809A0005DF8047B704700BF05
:1009A800007A030A000000000000000001020304AE
:0409B800060708091D
:0400000508000000EF
:00000001FF
